:1000000012C03FC7D0C62AC029C028C027C026C0FA
:1000100025C024C023C022C021C020C01FC01EC0D4
:100020001DC01CC01BC011241FBECFE5D4E0DEBF25
:10003000CDBF12E0A0E6B0E0E8E6F7E102C005902F
:100040000D92AA36B107D9F724E0AAE6B2E001C0C2
:100050001D92AA32B207E1F7F2DA84CBD1CF8FB585
:100060008F7C8FBD19BC18BC0895E82F61E070E04B
:1000700080E090E0EE2339F0E150AAE0B0E09B018F
:10008000AC014ADBF7CF0895282F81E090E03AE0F9
:10009000222341F02150AC01349FC001359F900DC7
:1000A0001124F6CF089520E030E048EB5BE02817FC
:1000B000390731F0FA013197F1F72F5F3F4FF7CF52
:1000C00008950F931F93CF93DF938C01C0E0D0E08E
:1000D000C017D10729F088EE93E0E5DF2196F8CF2D
:1000E000DF91CF911F910F9108953FEF81349105DA
:1000F00030F0232F2A95F1F780549109F7CF4AE089
:10010000489F9001499F300D1124C90168E770E0B4
:10011000CDDA6A95F1F70895CF93DF9398B3C1E0F4
:10012000D0E001C0CC0F8A95EAF79C2B98BB84EFF6
:1001300091E0B9DF88B3C095C823C8BB84EF91E0D4
:10014000DF91CF91B0CF20E030E044E0849FC00148
:100150001124AC0141595D4F822FFA01E20FF31FC8
:100160009081992339F02F5F3F4F24303105A1F75B
:1001700084E008950895BF92CF92DF92EF92FF92AC
:100180000F931F93CF93DF93C82FDDDFB82E0FEFB0
:10019000080FE12CF12CC12CD12C44E0C49FE001CC
:1001A0001124C159DD4FEB1400F5FE01EE0DFF1DCA
:1001B00080818A33ACF48081803394F01081802F69
:1001C00063DF212F110F330B20533109AC01249F22
:1001D000C001259F900D349F900D1124C80ED91E8B
:1001E0005FEFE51AF50A0150DECFC601DF91CF912E
:1001F0001F910F91FF90EF90DF90CF90BF900895E7
:100200009C01261B370B2D398FEF380724F081E036
:10021000243631050CF080E0089560E090E04091D4
:100220006C0250916D02262F30E0481B590B2417A9
:100230003507E8F4DC01A20FB31FAA0FBB1FAA0FFA
:10024000BB1FA558BD4F4D915C911197220F331FD5
:10025000220F331FF901E558FD4F51834083129659
:100260002D913C911397338322836F5FD8CF0895EC
:10027000BF92CF92DF92EF92FF920F931F93CF9393
:10028000DF93C0E0D0E080916C0290916D02C817BE
:10029000D90708F03FC0FE01EE0FFF1FEE0FFF1F52
:1002A000E558FD4F8281938168EB76E0A9DFB82E97
:1002B0007E012FEFE21AF20AC701880F991F880FFB
:1002C000991FFC01E558FD4F6F018081918162E526
:1002D00073E096DF082F10E00B0D111DF6018281EF
:1002E000938169E670E08CDF080F111D0330110562
:1002F00079F4209789F08C2F90DF80916C02909197
:100300006D028C1B9D0B90936D0280936C0204C058
:10031000E701B9CF80E001C081E0DF91CF911F916B
:100320000F91FF90EF90DF90CF90BF900895EF92E4
:10033000FF920F931F93CF93C0E080916C02909136
:100340006D020C2F10E0019708171907C0F5F8018E
:10035000EE0FFF1FEE0FFF1FE558FD4F80819181CB
:10036000E280F38065ED73E043E0969587954A95CA
:10037000E1F746DF882309F167ED70E0C70123E06C
:10038000969587952A95E1F73BDF8823B1F0000F1A
:10039000111F000F111F01581D4FF801808191811D
:1003A0006EEA71E02DDF882341F0F80182819381AC
:1003B00069E670E025DF811107C0CF5FBECF809175
:1003C0006C0290916D0201C08C2FCF911F910F9103
:1003D000FF90EF900895AF92BF92CF92DF92EF928D
:1003E000FF921F93CF93DF93182FC2E0D0E0C12C70
:1003F000D12C7601C11768F5CE01880F991F880F9F
:10040000991F9C0125583D4F5901F9018281938123
:1004100069E670E0F5DE8823D1F0F50180819181F5
:1004200060E471E0EDDE882331F0FFEFCF1ADF0AE0
:10043000EF0AFF0A08C0F5018081918169E670E04A
:10044000DFDE882321F0CC0CDD1CEE1CFF1C219686
:10045000D1CFC701B601DF91CF911F91FF90EF90EF
:10046000DF90CF90BF90AF90089520E030E044E15E
:10047000849FC0011124805A9C4FFC01E20FF31F9E
:1004800010822F5F3F4F24313105B9F7089580E086
:1004900072DE90914A03981728F0815080932804C7
:1004A00080E3089584E30895DC01209128044091BD
:1004B0004A0330E02F5F3F4F50E02417350724F503
:1004C000EFE6F2E001900020E9F73197EF56F240B5
:1004D000E130F105D9F480916F028833CCF480913A
:1004E0006F028033ACF090916F022C9180ED890FF8
:1004F00001C0EE0F8A95EAF7E22361F480912804A7
:100500008F5F8093280406C083E4089583E30895F1
:1005100084E3089580E308958A98929885B78C7F44
:1005200085BF8BB780648BBF81E080936E02789427
:1005300080E308958BB78F7B8BBF10926E0280E3B0
:10054000089580E000DE823070F58A9A80916F0213
:100550008C3421F4929A85B78C7F1CC080916F02F5
:10056000843531F485B7816085BF85B78D7F12C032
:1005700080916F02863439F4929A85B78E7F85BF59
:1005800085B7826007C080916F02823571F49298BE
:1005900085B7836085BF8BB780648BBF10926E0276
:1005A000789480E3089583E3089584E308958BB7F6
:1005B0008F7B8BBF80E3089580E0C5DD823060F5DE
:1005C0008B9A80916F028C3421F4939A85B7837F44
:1005D0001CC080916F02843531F485B7846085BF7B
:1005E00085B7877F12C080916F02863439F4939A61
:1005F00085B78B7F85BF85B7886007C080916F0204
:10060000823561F4939885B78C6085BF8BB780681D
:100610008BBF789480E3089583E3089584E308957D
:100620008BB78F778BBF80E308958F929F92AF92A5
:10063000BF92CF92DF92EF92FF92CF93DF93C82FBA
:1006400085E013DD6B017C0181E095DDD82F8730DB
:1006500010F085E3A0C0A8E7B0E0A70196015CD840
:100660006B017C0180E087DD5C018D2FFEDC9B014E
:10067000AC01D50151D84B015C01C616D706E8067E
:10068000F90638F3C701B601A5019401220F331F03
:10069000441F551F1FD8CA01B901C330B9F52FEF48
:1006A00030E040E050E016D8E6E0AE2FB0E0AA0F10
:1006B000BB1FA05ABF4F8D919C91A0E0B0E02817BE
:1006C00039074A075B0720F4EE2321F0E150EDCF14
:1006D000E63031F082179307A407B50708F4EF5FFF
:1006E00089E18E0F85BDF0E0EE0FFF1FE05AFF4F4E
:1006F000A081B181AA0FBB1FA50194010DD89B0158
:10070000AC01C701B601E6D723BD44C02FEF3FEFD0
:1007100040E050E0DFD7E4E0AE2FB0E0AA0FBB1F0F
:10072000A259BF4F8D919C91A0E0B0E028173907E6
:100730004A075B0720F4EE2321F0E150EDCFE430CF
:1007400031F082179307A407B50708F4EF5F8FB560
:10075000C13029F480648FBD8FB58F7704C080616C
:100760008FBD8FB58F7D8FBD89E08E0F8EBDF0E080
:10077000EE0FFF1FE259FF4FA081B181AA0FBB1FEF
:10078000A5019401C9D79B01AC01C701B601A2D74D
:100790003BBD2ABD80E3DF91CF91FF90EF90DF90CA
:1007A000CF90BF90AF909F908F900895CF93DF939D
:1007B000D82F80E0E0DCC82F81E0DDDCD33019F0F9
:1007C000C63060F02CC0C83050F58F3F910509F05D
:1007D00040F5BB9AC859C5BD83BD1FC0811524E033
:1007E0009207F8F457B321E030E04FEF4D0F01C00E
:1007F000220F4A95EAF7252B27BB2FB5D13011F4EC
:10080000236801C023622FBDC85FCEBDD13019F46B
:100810009BBD8ABD02C099BD88BD80E303C084E34F
:1008200001C085E3DF91CF910895CF93C82F80E079
:10083000A2DC47B35FEF5C0F21E030E001C0220F84
:100840005A95EAF7242B27BB2FE235E737BD26BDA3
:100850002AE12EBD9C0125523A4F9FB5C13041F48B
:100860009E7B9FBD9FB592689FBD3BBD2ABD07C0C3
:100870009E7E9FBD9FB592629FBD39BD28BD80E31E
:10088000CF910895833029F485B58F7C85BD13BC45
:1008900009C0823011F4E3DB05C08FB58F738FBDC3
:1008A0001BBC1ABC80E30895CF93DF9380E063DC28
:1008B000EC01C11582E0D807C8F481E044DC20E0F7
:1008C00030E0281788F4E199FECFAE01420F531FA4
:1008D0005FBB4EBBF901E159FD4F94819DBBE29A8C
:1008E000E19A2F5F3F4FEDCF80E301C084E3DF91BA
:1008F000CF91089580E090E0E199FECF9FBB8EBB41
:100900001DBAE29AE19A0196811522E09207A1F7B9
:1009100080E308959C01EFE6F2E001900020E9F702
:10092000E157F24031F5C901C797029740F4809131
:100930006F02863301F180916F028733F9F0C901AC
:10094000C497029740F480916F028633A1F08091A2
:100950006F02873399F0215331092230310568F451
:1009600080916F02803339F080916F02813329F4D6
:1009700002C083E3089587E3089580E30895EF922A
:10098000FF920F931F93CF93DF938C01C3DF8033CC
:1009900081F581E0F0DB7C0180E0EDDB883030F533
:1009A000F8019081C1E0D0E001C0CC0F8A95EAF750
:1009B0008C2F892B808380917702833519F4C701AE
:1009C00080DB0DC0809177028D3419F4C7016BDB99
:1009D00006C080917702853559F4C70186DBF8019E
:1009E0008081C095C823C08380E303C088E301C031
:1009F00089E3DF91CF911F910F91FF90EF900895C0
:100A000080E0B9DB20917302253511F46EDB05C05F
:100A1000209173022D3419F446DB80E30895209170
:100A20007302233511F44DDBF8CF85E30895CF939E
:100A3000DF93EC0180E09FDB8F3F910509F018F414
:100A4000888380E301C084E3DF91CF9108950F9301
:100A50001F93CF93DF938C015DDF803381F5C3E774
:100A6000D2E009900020E9F7C457D240C130D10547
:100A700009F580E080DB982F8830F0F480917302D4
:100A8000803351F4F801208101C0CC0F9A95EAF728
:100A9000C095C223C08313C080917302813371F467
:100AA000F801808101C0CC0F9A95EAF7C82BC0836A
:100AB00080E305C083E303C085E301C084E3DF91E5
:100AC000CF911F910F9108958CE089B910BC88E1F6
:100AD0008AB908955D9BFECF8CB908958AE0FADF4C
:100AE00082E5F8DF84E4F6DF8AE3F4CFCF93DF9387
:100AF000F5DFC0E0D0E0E199FECFDFBBCEBBE09AEE
:100B00008DB3E8DF2196C11582E0D807A1F78AE00E
:100B1000E1DF80E3DF91CF9108951F93CF93DF93BF
:100B20009C01EFE6F2E001900020E9F7E157F24086
:100B3000C1F580916F028833B4F580916F028033E4
:100B400094F12633310519F02333310549F48091AE
:100B50006F02863351F180916F02873361F426C0B2
:100B60002033310541F480916F028033F1F08091A0
:100B70006F028133D1F0E90110916F02AFDF28815C
:100B8000105381E090E001C0880F1A95EAF78223A4
:100B900011F480E301C081E39DDF8AE09BDF80E305
:100BA00005C083E303C084E301C087E3DF91CF91F5
:100BB0001F9108954F925F926F927F928F929F92B2
:100BC000AF92BF92CF92DF92EF92FF92CF93DF93DB
:100BD0006B017C01C9E0D0E08C2F47DA2B013C018E
:100BE000C701B601A301920175D549015A01232B12
:100BF000242B252B11F4DD2321F080E3880D6ADFFF
:100C0000D1E0A3019201C501B40141D5C61AD70AAA
:100C1000E80AF90AC15000F7DF91CF91FF90EF90F9
:100C2000DF90CF90BF90AF909F908F907F906F900C
:100C30005F904F900895CF92DF92EF92FF920F93C3
:100C40001F93CF93DF938C01C4E0D0E08C2F1CDA8C
:100C50006C01C801B6012AD57B01672B11F4DD2395
:100C600021F080E38E0D36DFD1E0CE9CC001CF9C19
:100C7000900DDE9C900D1124081B190BC15030F70C
:100C8000DF91CF911F910F91FF90EF90DF90CF9068
:100C90000895CF92DF92EF92FF920F931F93CF931D
:100CA000DF9300E613E0C0E0D0E084E1F82EEC2E04
:100CB0008C2FDBDB8AE00EDF6E012196CE01BBDFDD
:100CC0008AE308DF80E0FC9C9001FD9C300D11243C
:100CD000205A3C4F5F9B06C09CB1F901E80FF11D03
:100CE00090838F5FE82FF0E03197D901AE0FBF1FDF
:100CF0009C919D30A1F4FC9CC001FD9C900D1124A1
:100D0000805A9C4FE80FF91F10826CE770E0C80111
:100D100019D5892B39F4E0924A0380E30AC0843163
:100D2000C8F2E9CF0C5E1F4FCA30D10509F0BFCF22
:100D300081E4DF91CF911F910F91FF90EF90DF90B1
:100D4000CF900895CF93DF9380E015DA863080F45A
:100D5000805C87B987E886B9369A349BFECFC4B1E8
:100D6000D5B1BCDECE0167DF8AE0B4DE80E301C02E
:100D700084E3DF91CF9108950F931F93CF93DF9377
:100D8000EC018C010D5C1F4F89918A3039F088236A
:100D900029F0C017D10711F09DDEF6CFDF91CF917A
:100DA0001F910F9197CE1F920F920FB60F921124A1
:100DB0002F933F934F935F936F937F938F939F9363
:100DC000AF93BF93EF93FF93F89480E890E0D4DF64
:100DD000FF91EF91BF91AF919F918F917F916F9113
:100DE0005F914F913F912F910F900FBE0F901F90E9
:100DF00018951F93CF93DF9386E890E0BDDF809135
:100E00006C0290916D020B97C0F110E080916C0222
:100E100090916D02C12FD0E0C817D90790F4CC0F84
:100E2000DD1FCC0FDD1FC558DD4F8A819B8103DF9D
:100E30008AE350DE88819981FEDE8AE34BDE1F5F04
:100E4000E5CF8AE047DE14DA8130B9F481E990E039
:100E500093DF6DDAC82F80916C0290916D022C2F78
:100E600030E02817390749F08FE990E085DF8C2FB3
:100E7000B2DAA0DE8AE02EDE7894DF91CF911F9166
:100E800008951F920F920FB60F9211240F931F9384
:100E90002F933F934F935F936F937F938F939F9382
:100EA000AF93BF93CF93DF93EF93FF93F894809129
:100EB0006E02813021F085EA90E05EDF7DC0109205
:100EC0006D0210926C0205E010E0C3E0D0E01092D9
:100ED0006B0210926A02829B1BC080916A02909101
:100EE0006B02019690936B0280936A02C80101978E
:100EF000F1F780916A0290916B0280329E4458F320
:100F000080916C0290916D02892B29F372DF54C09D
:100F100020916C0230916D0280916A0290916B0277
:100F2000880F991FBE01C2D3220F331F220F331F18
:100F3000F901E558FD4F7183608310926B021092A6
:100F40006A0282991AC080916A0290916B0201969E
:100F500090936B0280936A02C8010197F1F7809128
:100F60006A0290916B0280329E4458F380916C0229
:100F700090916D02892B29F3C9CF20916C02309199
:100F80006D0280916A0290916B02880F991FBE01D9
:100F90008DD3220F331F220F331FF901E558FD4F68
:100FA0007383628380916C0290916D02019690939D
:100FB0006D0280936C028BCFFF91EF91DF91CF9107
:100FC000BF91AF919F918F917F916F915F914F9161
:100FD0003F912F911F910F910F900FBE0F901F9077
:100FE00018950F931F93CF93DF93C0E0D4E18091C6
:100FF0004A03C81798F40C2F10E0C80101961BDEB5
:101000008AE368DDD09FC001D19F900D1124805AE2
:101010009C4FB2DE8AE05EDDCF5FE9CF80E3DF91F7
:10102000CF911F910F9108955F9BFECF8CB10895D2
:1010300080E090E0FC01E55BFC4F1082019684317A
:101040009105C1F708950F931F93CF93DF938AE023
:1010500041DDC0E0D0E0FE01ED5BFC4F80813ADD78
:101060002196C630D105B9F7CFE6D2E00BE712E002
:101070008AE330DDCE0180DE24960C171D07C1F710
:101080008AE0DF91CF911F910F9124CD8FEF87BB25
:101090008FE384BB8CEF81BB17DD80917A00909148
:1010A0007B006ADE10926E0210924A0380917800F3
:1010B0009091790061DE80E308956BEA70E083E44B
:1010C00093E040D3892B19F488E390E009C062EBE8
:1010D00070E083E493E036D3892B19F485E390E044
:1010E000B6CC69EB70E083E493E02CD3892B19F440
:1010F00082E390E0F5CF60EC70E083E493E022D3EC
:10110000892B19F487E390E0EBCF67EC70E083E480
:1011100093E018D3892B19F484E390E0E1CF6EECCF
:1011200070E083E493E00ED3892B19F481E390E01F
:10113000D7CF65ED70E083E493E004D3892B19F4F5
:1011400086E390E009C06CED70E083E493E0FAD2AE
:10115000892B19F483E390E0E0CC63EE70E083E444
:1011600093E0F0D2892B19F480E390E0F5CF6AEE9A
:1011700070E083E493E0E6D2892B19F488E390E0F1
:1011800009C061EF70E083E493E0DCD2892B19F4AD
:1011900085E390E0F4CB68EF70E083E493E0D2D293
:1011A000892B19F482E390E0F5CF6FEF70E083E4D0
:1011B00093E0C8D2892B09F423CC66E071E083E484
:1011C00093E0C0D2892B19F488E390E009C06DE068
:1011D00071E083E493E0B6D2892B19F485E390E0C3
:1011E00026CC64E171E083E493E0ACD2892B19F45E
:1011F00082E390E0F5CF6BE171E083E493E0A2D26B
:10120000892B19F487E390E0EBCF62E271E083E48D
:1012100093E098D2892B19F484E390E0E1CF69E25E
:1012200071E083E493E08ED2892B19F481E390E09E
:10123000D7CF60E371E083E493E084D2892B09F493
:1012400025CF67E371E083E493E07CD2892B09F436
:101250004DCC6EE371E083E493E074D2892B09F402
:1012600023CB65E471E083E493E06CD2892B09F42D
:1012700041CB6CE471E083E493E064D2892B09F400
:1012800061CD63E571E083E493E05CD2892B11F4D6
:1012900081E008C06AE571E083E493E053D2892BD2
:1012A00011F482E083CA61E671E083E493E04AD2FC
:1012B000892B11F483E0F6CF68E671E083E493E0D4
:1012C00041D2892B11F481E011C06FE671E083E413
:1012D00093E038D2892B11F4C2D6D3C066E771E00F
:1012E00083E493E02FD2892B11F483E0CBCA6DE71E
:1012F00071E083E493E026D2892B09F422C964E8E3
:1013000071E083E493E01ED2892B09F455C96BE8A0
:1013100071E083E493E016D2892B09F448C962E9AD
:1013200071E083E493E00ED2892B09F479C969E96D
:1013300071E083E493E006D2892B09F4EDC860EAFA
:1013400071E083E493E0FED1892B09F4F3C867EAE6
:1013500071E083E493E0F6D1892B09F49ACC6EEA2C
:1013600071E083E493E0EED1892B09F43ACE65EB8A
:1013700071E083E493E0E6D1892B09F4EAC06CEBD9
:1013800071E083E493E0DED1892B09F402C163ECC0
:1013900071E083E493E0D6D1892B09F428C16AEC8B
:1013A00071E083E493E0CED1892B11F481E011C088
:1013B00061ED71E083E493E0C5D1892B11F482E003
:1013C00008C068ED71E083E493E0BCD1892B11F48F
:1013D00083E02BC96FED71E083E493E0B3D1892BF7
:1013E00009F471CF66EE71E083E493E0ABD1892B11
:1013F00009F472CF6DEE71E083E493E0A3D1892B01
:1014000009F473CF64EF71E083E493E09BD1892BFF
:1014100011F481E008C06BEF71E083E493E092D1B6
:10142000892B11F482E001CA62E072E083E493E068
:1014300089D1892B09F42BC869E072E083E493E039
:1014400081D1892B19F486E390E013C060E172E04A
:1014500083E493E077D1892B19F483E390E009C00A
:1014600067E172E083E493E06DD1892B19F480E3A6
:1014700090E01AC86EE172E083E493E063D1892BB7
:1014800011F480E3089586E30895CF93DF93EBE4AE
:10149000F3E001900020E9F73197EB54F340E53099
:1014A00008F451C080E090E0DC01A55BBC4F2C91BA
:1014B000DC01AD5BBC4F2C93019686309105A1F702
:1014C000E630F1F110924903809151038F35E9F52F
:1014D00060E070E086E0A82FB0E0A55BBC4F9C9177
:1014E0009F3571F56330710559F18E1748F58F5F9F
:1014F00040E050E09B01220F331F220F331FE90110
:10150000C159DD4F8E1798F4A82FB0E0A55BBC4FF2
:101510009C919F3561F09C91DE01A40FB51F9C93B7
:101520008F5F4F5F5F4F4430510561F706C021590F
:101530003D4FD901A40FB11D1C926F5F7F4FCBCFE0
:10154000DF91CF91BACD81E301C082E3DF91CF91EA
:101550000895CF931092280480E3C4E120912804D9
:1015600090914A03291798F4803389F460912804F4
:10157000C69FB0011124605A7C4F8BE493E0EBD0FE
:1015800084DF909128049F5F90932804E7CFCF9148
:1015900008951F93CF93DF9380E0EDD5D82F80E39C
:1015A000C0E014E1CD17F8F48033E9F41092280478
:1015B0002091280490914A03291710F0CF5FF2CFB1
:1015C0008033E1F760912804169FB0011124605A1E
:1015D0007C4F8BE493E0BFD058DF909128049F5F4D
:1015E00090932804E5CFDF91CF911F910895CF9379
:1015F000C4E11092280480E32091280490914A03CA
:101600002917C8F48033C9F460912804C69FB0013B
:101610001124605A7C4F8BE493E09DD036DF90918B
:1016200028049F5F909328045F9BE6CF9CB191377D
:1016300019F782E4E1CF8033E1F2CF91089526DDFE
:10164000F7DC80E05F9B07C0E82FF0E09CB1E55B32
:10165000FC4F90838F5FE82FF0E0E65BFC4F9081BA
:101660009D3049F4108211DFC82F803339F485E2B0
:1016700092E082DBE5CF843128F3F4CF85E42ADAE7
:1016800082E528DA8C2F26DA8AE024DAD9CFDB014A
:101690008F939F9341D0BF91AF91A29F800D911DD9
:1016A000A39F900DB29F900D11240895AA1BBB1B00
:1016B00051E107C0AA1FBB1FA617B70710F0A61B52
:1016C000B70B881F991F5A95A9F780959095BC0173
:1016D000CD010895A1E21A2EAA1BBB1BFD010DC06E
:1016E000AA1FBB1FEE1FFF1FA217B307E407F507D2
:1016F00020F0A21BB30BE40BF50B661F771F881FAE
:10170000991F1A9469F760957095809590959B0143
:10171000AC01BD01CF01089509D0A59F900DB49FE4
:10172000900DA49F800D911D11240895A29FB001DA
:10173000B39FC001A39F01D0B29F700D811D1124E2
:10174000911D0895FB01DC018D910190801901101C
:10175000D9F3990B0895FB01DC0101900D92002053
:08176000E1F70895F894FFCFB2
:101768000200080020004000800000010004010081
:10177800080040000001000429025402454E4400BC
:10178800494E54310A004952204465636F64653AF2
:10179800005369676E616C2076616C69640A005752
:1017A8006F72643A00494E54300A00575250494EFD
:1017B8004200575250494E4300575250494E440038
:1017C800445250494E4200445250494E43004452FC
:1017D80050494E4400524450494E420052445049E8
:1017E8004E4300524450494E4400424C50494E42E8
:1017F80000424C50494E4300424C50494E44004D23
:10180800435741495400575250525442005752507E
:101818005254430057525052544400575244445271
:1018280042005752444452430057524444524400E1
:10183800535245534554005244454550520057525F
:101848004545505200434C4545505200524150497D
:101858004E43004650574D4231004650574D423294
:10186800004650574D4233005350574D42310053B4
:1018780050574D4232005350574D4233005752494A
:101888004E5430005752494E5431005354494E5427
:1018980030005354494E54310049524443443000B7
:1018A8005354444344300057494E535452004C4912
:1018B8004E5354520045494E5354520052494E53C8
:1018C80054520055494E53545200575351524231C5
:1018D800005753515242320057535152423300532A
:1018E80053515242310053535152423200535351D3
:1018F80052423300534552564231005345525642E4
:101908003200494E474F544F00494650494E420015
:10191800494650494E4300494650494E44004E4FAF
:10192800494E5354004F4B0A005265736574206347
:101938006F6D706C6574652E2E2E77616974696E93
:101948006720666F7220696E737472756374696F4D
:101958006E730A0044726976657220666F72204160
:0A196800544D4547415F380A000066
:00000001FF
